:1000000084C0A8C0D4C0A6C054C7A4C0A3C0A2C006
:10001000A1C0A0C09FC09EC09DC09CC09BC0806B63
:1000200052008945255E366D192A736155323F2F7E
:100030002723212030383C3E786A0031004C5A0595
:10004000181A0C02120E1004170D1407060F161DB5
:100050000A080309110B191B1C000000004D5E1259
:1000600001100102000008D0167E08000101020004
:100070000122034400690067006900730070006199
:100080000072006B0020005300650072006900617F
:10009000006C001C03640069006700690073007451
:1000A0000075006D0070002E0063006F006D00048D
:1000B0000309040902430002010080320904000020
:1000C000010202010005240010010424020205249B
:1000D0000600010524010301070583030800FF0949
:1000E000040100020A0000000705010208000007E1
:1000F000058102080000010204081020010101012D
:100100000101003600380037430711241FBECFE538
:10011000D2E0DEBFCDBF10E0A0E6B0E0EEE4F4E157
:1001200002C005900D92A639B107D9F721E0A6E9E2
:10013000B0E001C01D92A834B207E1F711E0CAE0B7
:10014000D1E003C02297FE013DD9C830D107D1F7D5
:1001500000D97BC955CFA82FB92F80E090E041E0AE
:1001600050EA609530E009C02D91822797958795D8
:1001700010F084279527305EC8F36F5FA8F30895C9
:10018000EADF8D939D930895A6E088279927AA9585
:1001900069F00197E1F3B399FCCFB39BFECF81E007
:1001A0009927A6B3019611F0A871D9F70895CF93B6
:1001B000CFB7CF93C395B39BE9F7B39B0BC0B39B6A
:1001C00009C0B39B07C0B39B05C0B39B03C0B39BDF
:1001D00001C0D8C00F92DF93C0911F01DD27CA5D17
:1001E000DE4F012EB39B03C0DF910F90E6CF2F931C
:1001F0000F931F934F932FEF4F6F06B303FB20F91D
:100200005F933F9350E03BE065C016B30126502951
:1002100053FDC89556B3012703FB25F92F7306B389
:10022000B1F05027102713FB26F906B22230F0F068
:1002300000C016B3012703FB27F90126502906B297
:100240002430E8F54F77206816B30000F6CF50272A
:100250004F7D206206B2102F000000C006B30026BA
:100260005029102713FB26F906B2E2CF4F7B06B3C5
:10027000206400C0DACF01265029187106B269F156
:100280004E7F2160012F16B328C0002650294D7FD4
:1002900006B22260102F29C0012650294B7F06B2DA
:1002A0002460012F2DC016B301265029477F2860F6
:1002B000000006B22EC04F7E06B3206130C0422738
:1002C00006B3499300265029102706B24FEF13FBBF
:1002D00020F9297F16B379F2187159F101265029B6
:1002E00006B2012703FB21F9237F06B371F2002632
:1002F00050293150D0F006B2102713FB22F9277E87
:1003000016B351F201265029012703FB06B223F947
:100310002F7C49F2000006B3102713FB24F90026B6
:10032000502906B22F7939F270CF10E21ABF002798
:100330001CC03B503195C31BD04010E21ABF08814E
:10034000033C21F10B3411F120911D011981110F92
:100350001213EDCF4A81441F093669F10D3211F0B5
:10036000013E29F74F7009F0042F009324013F91BB
:100370005F914F911F910F912F91DF910F90CAB70D
:10038000C5FD18CFCF91CFBFCF91189520912401F3
:10039000222369F3109122011123D1F53430D2F1D7
:1003A0003093220120931E0110911F013BE0311B6D
:1003B00030931F012FC00091220101304CF50AE556
:1003C0004F7049F43091670034FD25C000936700F9
:1003D000C6E0D1E024C0433049F03091110134FD32
:1003E0001AC000931101C2E1D1E019C030913C0163
:1003F00034FD11C000933C01CDE3D1E010C00527CE
:1004000010E000C021C0052710E0C89508BB14C04B
:100410003AE501C032ED032EC0E0D0E032E017B380
:100420001861C39A08B317BB58E120E84FEF20FFCB
:10043000052708BB279517951C3F28F70000455254
:10044000B0F720FF0527279508BB17951C3FB8F686
:1004500029913A9561F7077E10912301110F08BB8E
:10046000C250D04011F010931D0110E21ABF086075
:1004700017B3177E402F477E54E05A95F1F708BB1B
:1004800017BB48BB74CF8F929F92AF92BF92CF920F
:10049000DF92EF92FF920F931F93CF93DF936B0145
:1004A0008032910599F4660F771F882777FD809534
:1004B000982FDF91CF911F910F91FF90EF90DF90D8
:1004C000CF90BF90AF909F908F906AC5FC01E25093
:1004D000F0400491902FC0E0D0E0969511F0219665
:1004E000FCCF2197C60163E070E037D74C01AA2406
:1004F00097FCA094BA2C10E0EE24D7FCE094FE2CDC
:10050000CF3F8FEFD807E1F0C8010C2E02C09595C0
:1005100087950A94E2F761E080FF05C081E0B4D5D9
:10052000C501B40104C081E0AFD5C701B60138D51B
:1005300060E081E0A9D5C701B60132D52197E0CFAF
:10054000DF91CF911F910F91FF90EF90DF90CF90AF
:10055000BF90AF909F908F900895CF92DF92EF92CF
:10056000FF920F931F93CF93DF9380E090E047D7E4
:100570008153833048F4E82FF0E0EF57FF4FC081FC
:10058000DD27C7FDD09502C0C0EFD0E003E010E04A
:1005900061E081E079D564E670E080E090E000D52C
:1005A00060E081E071D56CE677E080E090E0F8D41F
:1005B0000150110969F76E01CC0CDD1CEE24D7FC4B
:1005C000E094FE2C01E010E0C80119D7882359F00F
:1005D000BE01992787FD909556DFC701B601E0D48B
:1005E0000F5F1F4FF1CF68EB7BE080E090E0DF9181
:1005F000CF911F910F91FF90EF90DF90CF90D0C4DB
:10060000CF93DF9300D01F92CDB7DEB761E081E0DA
:100610003BD588E990E088D348EE53E060E070E095
:1006200088E990E049D362E770E088E990E07CD601
:1006300000E010E0DD24D39488E990E0ABD3892B6F
:1006400009F46DC088E990E0A9D3282FDD2009F1D5
:1006500069E770E088E990E02B8366D62B812B3523
:1006600009F05DC0C801CBD6882339F0682F88E92E
:1006700090E066D30F5F1F4FF5CF88E990E041D639
:100680006CE770E088E990E04FD600E010E0D12CF4
:1006900046C08D3599F460E0C801B9D6E12CF12C43
:1006A000E016F10654F4C701AAD6682F88E990E055
:1006B00047D38FEFE81AF80AF3CFFFCF81360CF05B
:1006C0002052622FC801A3D60115E2E01E0788F46C
:1006D000E0919800F0919900E280F3804AE0BE0139
:1006E0006F5F7F4FC80172D6BC0188E990E0F701C7
:1006F0000995E0919800F09199000280F381E02D36
:100700006FE770E088E990E00995C80178D640E08D
:1007100050E0682F88E990E00FD60F5F1F4F44E646
:1007200050E060E070E088E990E0C6D285CF61E0FB
:1007300081E073D460E080E070D461E080E0A4D414
:1007400080E0D1D4892B09F45BDF0895DF92EF922A
:10075000FF920F931F93CF93DF93C8E0D0E0F12C6B
:1007600080E8E82EDF2CDE0CD1BE0EDD8C010433D8
:1007700089E018070CF4FD2CE694219799F78FEF88
:100780008F0D81BFCF2DD0E0219681B790E0C817A3
:10079000D9078CF0F9DC8453994097FF03C09195F9
:1007A000819591098017910714F4F1B68C0181B7F6
:1007B0008F5F81BFEACFF1BEDF91CF911F910F9183
:1007C000FF90EF90DF9008951F93CF93DF93162F44
:1007D000EA01288124FF05C0298138E823272983DD
:1007E00002C02AE528839E012E5F3F4FD901FC01FC
:1007F000810F91919D93982F9E1B1916D4F3612F11
:10080000C901BEDC1C5F1883DF91CF911F91089551
:1008100041E151E0D9CF4CE351E0D6CFCF93DF9304
:1008200060912201635067FDB2C080911F01CCE04E
:10083000D0E0C81BD109CA5DDE4F80911E01803116
:1008400018F4CE01F8D29DC08D3209F08BC068300B
:1008500009F097C083EC809306018AE580936700D6
:10086000109297008881807619F0CE01C2D267C0BD
:100870009A8110920F018981811106C01092100196
:100880002FE031E082E057C0853019F490932301C6
:100890004FC08630A9F58B81813041F48FE590E01F
:1008A000909321018093200182E126C0823019F4C7
:1008B000CE018AD221C08330F1F4911108C08FEAB1
:1008C00090E0909321018093200184E015C0913045
:1008D00041F483E990E090932101809320018CE121
:1008E0000BC0923041F481E790E090932101809316
:1008F000200182E201C080E090E4909397001FC045
:10090000883079F0893019F49093250111C08A302C
:1009100059F08B3069F48BE48093120180933D0190
:1009200007C025E231E002C02FE031E081E003C0E2
:100930002FE031E080E030932101209320018F3FB0
:1009400039F4988197FD8E8190E89093970007C0C5
:100950009F81911104C09E81981708F4892F80937C
:1009600066000FC08091970087FF0BC0CE0161D257
:100970008F3F21F48EE18093670003C081111092B4
:10098000660080912201181614F4109222018091C1
:10099000670084FF56C0809166008F3F09F451C004
:1009A000C82F893008F0C8E08C1B809366008091C6
:1009B000060198E8892780930601CC2389F180916C
:1009C000970087FF08C06C2F87E091E030D2C82FD6
:1009D000893088F525C0409120015091210186FF82
:1009E0000BC0A7E0B1E0FA018C2F8A0F94919D9380
:1009F00031968A13FBCF09C0DA01E7E0F1E08C2FD2
:100A00008E0F9D9191938E13FCCF2FEF2C0F30E022
:100A10002F5F3F4F240F351F30932101209320017A
:100A20006C2F87E091E0ACDBCC5FCC3041F08FEFF6
:100A30008093660004C08FEF80936600CEE1C09380
:100A4000670084E196B3987131F48150D9F7109220
:100A5000230110921D01C1E08111C0E08091960038
:100A60008C1739F0C11103C0F89470DE7894C093EC
:100A70009600DF91CF910895AC9A8BB780628BBFBF
:100A80008BE48093120180933D018AE580931101EC
:100A900080933C010895FC01A081B1816C93808119
:100AA00091810196918380832681378182179307F4
:100AB00021F484819581918380832FB7F894828576
:100AC00093850196938782872FBF0895FC01A281A9
:100AD000B3818D91B383A28326813781A217B30797
:100AE00021F424813581338322839FB7F8942285B2
:100AF000338521503109338722879FBF0895F894A9
:100B000088EC90E09093E9008093E8009093EB00EC
:100B10008093EA009093ED008093EC0088EE90E0E3
:100B20009093EF008093EE0080E290E09093F100CC
:100B30008093F0001092F3001092F20078940895E0
:100B40002FB7F894FC01808191812FBF089582EF27
:100B500090E0F6DF892B39F0E091EA00F091EB00AC
:100B6000808190E0089580E090E00895F89488B343
:100B7000877E88BBBB9A27EA86E99CE021508040AB
:100B80009040E1F700C00000BB9876DF8CE990E070
:100B90009093BD008093BC009093BF008093BE00F3
:100BA0009093C1008093C0008CEB90E09093C300C1
:100BB0008093C20020E230E03093C5002093C4004F
:100BC0001092C7001092C60088EC90E09093E90064
:100BD0008093E8009093EB008093EA009093ED00FF
:100BE0008093EC0088EE90E09093EF008093EE000D
:100BF0003093F1002093F0001092F3001092F20075
:100C000010929A0010929B0078940895CF9306DE7C
:100C100086EC90E095DF892B21F0C091F400C9307B
:100C200030F18091110184FF19C080919B008823CD
:100C300039F060E085EF90E0EBDD10929B000EC094
:100C40006091F400662351F085EF90E0E1DD1092B1
:100C5000220181E080939B001092F40080919A0021
:100C6000882309F190913C0194FD0EC01CC081E0E5
:100C70008C0F8093F4008CEB90E028DFEC2FF0E0F9
:100C8000EB50FF4F8083C4CF823021F468E088E6C8
:100C900090E003C062E080E790E0BDDD80919A00C3
:100CA000815080939A00CF910895ECE1F0E1319763
:100CB000F1F700C00000AACF4F925F926F927F922F
:100CC0008F929F92AF92BF92CF92DF92EF92FF925C
:100CD000CF93DF93EC016A017B0132D14B015C01C0
:100CE0001C141D041E041F0484F42AD12B013C0192
:100CF000C61AD70AE80AF90AC80CD91CEA1CFB1C58
:100D0000CE01D3DF53014201EBCFDF91CF91FF90B2
:100D1000EF90DF90CF90BF90AF909F908F907F909B
:100D20006F905F904F900895CF93DF93EC011EDF9B
:100D300044EF51E060E070E0CE01DF91CF91BCCF95
:100D40000F931F93CF93DF931F92CDB7DEB78C0124
:100D500086EC90E06983F4DE2091C4003091C500F8
:100D600069818217930729F4C8019FDF80E090E032
:100D70000BC08CEB90E08FDE45E050E060E070E06F
:100D8000C8019ADF81E090E00F90DF91CF911F9131
:100D90000F9108958ADF82EF90E0D2CECF93DF9358
:100DA000EC0182EF90E0CCDE892B29F4CE017DDFCF
:100DB00080E090E006C0CE0178DF88EE90E086DE2D
:100DC00090E0DF91CF910895FC018381813049F457
:100DD0008FE590E0909321018093200180915F0046
:100DE000089583EB90E0909321018093200183E4A8
:100DF0000895FC012081322F30763032A1F4FC01BD
:100E0000818190EE980F923080F0823239F4809197
:100E10009A00811103C082E080939A0027FD03C0ED
:100E200081E080939B0080E008958FEF089587E034
:100E3000089581E008950F931F93CF93DF93162FAA
:100E4000082FEC018C2F801B811780F482EF90E03B
:100E500077DE2091F0003091F1008217930721F0A6
:100E6000688188EE90E017DE2196ECCF82EF90E06B
:100E700067DE089718F08FEF80932201DF91CF9102
:100E80001F910F91089588E890E0909399008093C6
:100E90009800089583B7887F83BF8AB58C7F81606F
:100EA0008ABD83B7877F83BF83B7887F836083BF13
:100EB000089578941F920F920FB60F9211242F93DA
:100EC0003F938F939F93AF93BF938091FE00909138
:100ED000FF00A0910001B09101013091FD002CE7CD
:100EE000230F2D3728F02FEF230F0196A11DB11DE1
:100EF0002093FD008093FE009093FF00A0930001DB
:100F0000B09301018091020190910301A09104012D
:100F1000B09105010196A11DB11D8093020190932E
:100F20000301A0930401B0930501BF91AF919F917C
:100F30008F913F912F910F900FBE0F901F9018959A
:100F40002FB7F8946091FE007091FF00809100012E
:100F5000909101012FBF08953FB7F894809102014D
:100F600090910301A0910401B09105012FB508B63D
:100F700002FE05C02F3F19F00196A11DB11D3FBF14
:100F80006627782F892F9A2F620F711D811D911D61
:100F900042E0660F771F881F991F4A95D1F7089581
:100FA000CF92DF92EF92FF92CF93DF936B017C01A0
:100FB000D3DFEB01C114D104E104F10471F0CCDF03
:100FC0006C1B7D0B683E7340A8F381E0C81AD10802
:100FD000E108F108C851DC4FEDCFDF91CF91FF90D0
:100FE000EF90DF90CF900895789480B7806880BFAD
:100FF00080B7806480BF8CB580648CBD8FEF8DBD61
:1010000080B7807F876080BF89B7846089BF42DFF7
:1010100086B1876086B9379A0895CF93DF9390E0C1
:10102000FC01EA50FF4F2491FC01E450FF4F8491F2
:10103000882339F190E0FC01EA5FFE4FA491B0E013
:10104000FC01EC5FFE4F8491611106C09FB7F894DC
:101050008C912095822313C0623069F4C82FD0E0B0
:101060009FB7F8948C91322F309583238C9388818D
:10107000822B888305C09FB7F8948C91822B8C9328
:101080009FBFDF91CF910895A82FB0E0FD01EA50F6
:10109000FF4F9491FD01E450FF4FE491EE2311F1D5
:1010A000811103C08AB58F7304C0813021F48AB5E1
:1010B0008F7C8ABD05C0843019F48CB58F7C8CBDC3
:1010C000F0E0EC5FFE4FA491B0E02FB7611105C0D6
:1010D000F8948C919095892303C0F8948C91892B76
:1010E0008C932FBF0895282F30E0F901EA50FF4F6D
:1010F0009491F901E450FF4FE491EE23E1F0811166
:1011000003C08AB58F7304C0813021F48AB58F7C07
:101110008ABD05C0843019F48CB58F7C8CBDF0E09D
:10112000EE5FFE4FE491F0E02081292381E090E022
:1011300021F480E0089580E090E008950F931F93DC
:10114000CF93DF93EC018B01F80161918F0166234E
:1011500041F0E881F9810190F081E02DCE010995FF
:10116000F3CFDF91CF911F910F910895EF92FF92EE
:101170000F931F93CF93DF937C018A01EB01060F3E
:10118000171FC017D10751F06991D701ED91FC915C
:101190000190F081E02DC7010995F3CFDF91CF9148
:1011A0001F910F91FF90EF900895DC01ED91FC915C
:1011B0000190F081E02D642F0994DC01ED91FC9108
:1011C0000280F381E02D09944F925F926F927F929B
:1011D0008F929F92AF92BF92CF92DF92EF92FF9247
:1011E0000F931F93CF93DF93CDB7DEB7A0970FB6C2
:1011F000F894DEBF0FBECDBF5C01411551056105FE
:101200007105D9F440E350E060E070E0A0960FB6BD
:10121000F894DEBF0FBECDBFDF91CF911F910F912C
:10122000FF90EF90DF90CF90BF90AF909F908F9006
:101230007F906F905F904F90B8CF8E010F5F1F4FE0
:10124000C12CD12C76014801422E512C612C712CDD
:101250008FEFC81AD80AE80AF80ACB01BA01A3012D
:1012600092018CD0CA01F80161938F01A901BC01E0
:10127000411551056105710559F7F1E0CF1AD10803
:10128000E108F108F401EC0DFD1D80818A3010F4B5
:1012900040E301C047E3480F552747FD5095652FB0
:1012A000752FC50182DF81E0C81AD108E108F10875
:1012B000EFEFCE16DE06EE06FE0621F7A0960FB67D
:1012C000F894DEBF0FBECDBFDF91CF911F910F917C
:1012D000FF90EF90DF90CF90BF90AF909F908F9056
:1012E0007F906F905F904F9008952115310541F4E4
:1012F000DC01ED91FC910190F081E02D642F0994C7
:1013000063CFCF93DF93EC014DE050E060E070E0FD
:101310004CDF4AE050E060E070E0CE0146DF82E062
:1013200090E0DF91CF910895CF93DF93EC0145DFFB
:10133000CE01DF91CF91E5CFCF93DF93EC019A01FE
:10134000462F50E060E070E0D0DFCE01DF91CF911A
:10135000D8CF4ADEECD901D9FECF0024552704C0EE
:10136000080E591F880F991F009729F076956795E9
:10137000B8F37105B9F7802D952F0895A1E21A2EC3
:10138000AA1BBB1BFD010DC0AA1FBB1FEE1FFF1F29
:10139000A217B307E407F50720F0A21BB30BE40B79
:1013A000F50B661F771F881F991F1A9469F76095C0
:1013B0007095809590959B01AC01BD01CF0108957A
:1013C000EE0FFF1F0590F491E02D0994BB27FB0160
:1013D0005527AA27880F991FAA1FA41710F0A41B2E
:1013E00083955051B9F7A05DAA3308F0A95DA19388
:1013F000009779F7B111B1931192CB0116C0E19921
:10140000FECF9FBB8EBBE09A99278DB30895262F00
:10141000E199FECF1CBA9FBB8EBB2DBB0FB6F894D3
:10142000E29AE19A0FBE01960895DC01FC01672F54
:1014300071917723E1F7329704C07C916D937083AB
:0E1440006291AE17BF07C8F30895F894FFCF6E
:10144E00000048018000FF5AA120000000000200A9
:10145E00030054797065205B002E2E0077706D3A74
:10146E000078503C00000000A0069E08B608CA0690
:06147E00CE06A7057F0564
:00000001FF
